{
  "contractName": "PropertiesContract",
  "abi": [
    {
      "anonymous": false,
      "inputs": [
        {
          "indexed": false,
          "internalType": "uint256",
          "name": "id",
          "type": "uint256"
        },
        {
          "indexed": false,
          "internalType": "string",
          "name": "oldOwnerAndCedula",
          "type": "string"
        },
        {
          "indexed": false,
          "internalType": "string",
          "name": "newOwnerAndCedula",
          "type": "string"
        },
        {
          "indexed": false,
          "internalType": "string",
          "name": "price",
          "type": "string"
        },
        {
          "indexed": false,
          "internalType": "uint256",
          "name": "propertyId",
          "type": "uint256"
        },
        {
          "indexed": false,
          "internalType": "string",
          "name": "services",
          "type": "string"
        },
        {
          "indexed": false,
          "internalType": "uint256",
          "name": "superficie",
          "type": "uint256"
        },
        {
          "indexed": false,
          "internalType": "uint256",
          "name": "createAt",
          "type": "uint256"
        },
        {
          "indexed": false,
          "internalType": "string",
          "name": "latitud",
          "type": "string"
        },
        {
          "indexed": false,
          "internalType": "string",
          "name": "longitud",
          "type": "string"
        },
        {
          "indexed": false,
          "internalType": "string",
          "name": "zona",
          "type": "string"
        }
      ],
      "name": "PropertyCreated",
      "type": "event"
    },
    {
      "inputs": [],
      "name": "contador",
      "outputs": [
        {
          "internalType": "uint256",
          "name": "",
          "type": "uint256"
        }
      ],
      "stateMutability": "view",
      "type": "function",
      "constant": true
    },
    {
      "inputs": [
        {
          "internalType": "address",
          "name": "",
          "type": "address"
        },
        {
          "internalType": "uint256",
          "name": "",
          "type": "uint256"
        }
      ],
      "name": "properties",
      "outputs": [
        {
          "internalType": "uint256",
          "name": "id",
          "type": "uint256"
        },
        {
          "internalType": "string",
          "name": "oldOwnerAndCedula",
          "type": "string"
        },
        {
          "internalType": "string",
          "name": "newOwnerAndCedula",
          "type": "string"
        },
        {
          "internalType": "string",
          "name": "price",
          "type": "string"
        },
        {
          "internalType": "uint256",
          "name": "propertyId",
          "type": "uint256"
        },
        {
          "internalType": "string",
          "name": "services",
          "type": "string"
        },
        {
          "internalType": "uint256",
          "name": "superficie",
          "type": "uint256"
        },
        {
          "internalType": "uint256",
          "name": "createAt",
          "type": "uint256"
        },
        {
          "internalType": "string",
          "name": "latitud",
          "type": "string"
        },
        {
          "internalType": "string",
          "name": "longitud",
          "type": "string"
        },
        {
          "internalType": "string",
          "name": "zona",
          "type": "string"
        }
      ],
      "stateMutability": "view",
      "type": "function",
      "constant": true
    },
    {
      "inputs": [
        {
          "internalType": "address",
          "name": "",
          "type": "address"
        }
      ],
      "name": "propertiesCount",
      "outputs": [
        {
          "internalType": "uint256",
          "name": "",
          "type": "uint256"
        }
      ],
      "stateMutability": "view",
      "type": "function",
      "constant": true
    },
    {
      "inputs": [
        {
          "internalType": "string",
          "name": "_oldOwnerAndCedula",
          "type": "string"
        },
        {
          "internalType": "string",
          "name": "_newOwnerAndCedula",
          "type": "string"
        },
        {
          "internalType": "string",
          "name": "_price",
          "type": "string"
        },
        {
          "internalType": "uint256",
          "name": "_propertyId",
          "type": "uint256"
        },
        {
          "internalType": "string",
          "name": "_services",
          "type": "string"
        },
        {
          "internalType": "uint256",
          "name": "_superficie",
          "type": "uint256"
        },
        {
          "internalType": "string",
          "name": "_latitud",
          "type": "string"
        },
        {
          "internalType": "string",
          "name": "_longitud",
          "type": "string"
        },
        {
          "internalType": "string",
          "name": "_zona",
          "type": "string"
        }
      ],
      "name": "createPropertyContract",
      "outputs": [],
      "stateMutability": "nonpayable",
      "type": "function"
    }
  ],
  "bytecode": "0x60806040526000805534801561001457600080fd5b50610ef7806100246000396000f3fe608060405234801561001057600080fd5b506004361061004c5760003560e01c806314bfcdd71461005157806353d27cc21461008b578063580b52a2146100a9578063697e036b146100c5575b600080fd5b61006b60048036038101906100669190610938565b6100f5565b6040516100829b9a99989796959493929190610b69565b60405180910390f35b610093610514565b6040516100a09190610b4e565b60405180910390f35b6100c360048036038101906100be9190610978565b61051a565b005b6100df60048036038101906100da919061090b565b6107b6565b6040516100ec9190610b4e565b60405180910390f35b60016020528160005260406000206020528060005260406000206000915091505080600001549080600101805461012b90610d35565b80601f016020809104026020016040519081016040528092919081815260200182805461015790610d35565b80156101a45780601f10610179576101008083540402835291602001916101a4565b820191906000526020600020905b81548152906001019060200180831161018757829003601f168201915b5050505050908060020180546101b990610d35565b80601f01602080910402602001604051908101604052809291908181526020018280546101e590610d35565b80156102325780601f1061020757610100808354040283529160200191610232565b820191906000526020600020905b81548152906001019060200180831161021557829003601f168201915b50505050509080600301805461024790610d35565b80601f016020809104026020016040519081016040528092919081815260200182805461027390610d35565b80156102c05780601f10610295576101008083540402835291602001916102c0565b820191906000526020600020905b8154815290600101906020018083116102a357829003601f168201915b5050505050908060040154908060050180546102db90610d35565b80601f016020809104026020016040519081016040528092919081815260200182805461030790610d35565b80156103545780601f1061032957610100808354040283529160200191610354565b820191906000526020600020905b81548152906001019060200180831161033757829003601f168201915b50505050509080600601549080600701549080600801805461037590610d35565b80601f01602080910402602001604051908101604052809291908181526020018280546103a190610d35565b80156103ee5780601f106103c3576101008083540402835291602001916103ee565b820191906000526020600020905b8154815290600101906020018083116103d157829003601f168201915b50505050509080600901805461040390610d35565b80601f016020809104026020016040519081016040528092919081815260200182805461042f90610d35565b801561047c5780601f106104515761010080835404028352916020019161047c565b820191906000526020600020905b81548152906001019060200180831161045f57829003601f168201915b50505050509080600a01805461049190610d35565b80601f01602080910402602001604051908101604052809291908181526020018280546104bd90610d35565b801561050a5780601f106104df5761010080835404028352916020019161050a565b820191906000526020600020905b8154815290600101906020018083116104ed57829003601f168201915b505050505090508b565b60005481565b6000600260003373ffffffffffffffffffffffffffffffffffffffff1673ffffffffffffffffffffffffffffffffffffffff1681526020019081526020016000205490506040518061016001604052808281526020018b81526020018a815260200189815260200188815260200187815260200186815260200142815260200185815260200184815260200183815250600160003373ffffffffffffffffffffffffffffffffffffffff1673ffffffffffffffffffffffffffffffffffffffff16815260200190815260200160002060008381526020019081526020016000206000820151816000015560208201518160010190805190602001906106209291906107ce565b50604082015181600201908051906020019061063d9291906107ce565b50606082015181600301908051906020019061065a9291906107ce565b506080820151816004015560a08201518160050190805190602001906106819291906107ce565b5060c0820151816006015560e082015181600701556101008201518160080190805190602001906106b39291906107ce565b506101208201518160090190805190602001906106d19291906107ce565b5061014082015181600a0190805190602001906106ef9291906107ce565b509050507f19d73ee11eaaf9dd9626126f2d2b2d1ebda32b400f3d152eb488295056ab4742818b8b8b8b8b8b428c8c8c6040516107369b9a99989796959493929190610b69565b60405180910390a1600260003373ffffffffffffffffffffffffffffffffffffffff1673ffffffffffffffffffffffffffffffffffffffff168152602001908152602001600020600081548092919061078e90610d98565b91905055506000808154809291906107a590610d98565b919050555050505050505050505050565b60026020528060005260406000206000915090505481565b8280546107da90610d35565b90600052602060002090601f0160209004810192826107fc5760008555610843565b82601f1061081557805160ff1916838001178555610843565b82800160010185558215610843579182015b82811115610842578251825591602001919060010190610827565b5b5090506108509190610854565b5090565b5b8082111561086d576000816000905550600101610855565b5090565b600061088461087f84610c6a565b610c45565b9050828152602081018484840111156108a05761089f610e73565b5b6108ab848285610cf3565b509392505050565b6000813590506108c281610e93565b92915050565b600082601f8301126108dd576108dc610e6e565b5b81356108ed848260208601610871565b91505092915050565b60008135905061090581610eaa565b92915050565b60006020828403121561092157610920610e7d565b5b600061092f848285016108b3565b91505092915050565b6000806040838503121561094f5761094e610e7d565b5b600061095d858286016108b3565b925050602061096e858286016108f6565b9150509250929050565b60008060008060008060008060006101208a8c03121561099b5761099a610e7d565b5b60008a013567ffffffffffffffff8111156109b9576109b8610e78565b5b6109c58c828d016108c8565b99505060208a013567ffffffffffffffff8111156109e6576109e5610e78565b5b6109f28c828d016108c8565b98505060408a013567ffffffffffffffff811115610a1357610a12610e78565b5b610a1f8c828d016108c8565b9750506060610a308c828d016108f6565b96505060808a013567ffffffffffffffff811115610a5157610a50610e78565b5b610a5d8c828d016108c8565b95505060a0610a6e8c828d016108f6565b94505060c08a013567ffffffffffffffff811115610a8f57610a8e610e78565b5b610a9b8c828d016108c8565b93505060e08a013567ffffffffffffffff811115610abc57610abb610e78565b5b610ac88c828d016108c8565b9250506101008a013567ffffffffffffffff811115610aea57610ae9610e78565b5b610af68c828d016108c8565b9150509295985092959850929598565b6000610b1182610c9b565b610b1b8185610ca6565b9350610b2b818560208601610d02565b610b3481610e82565b840191505092915050565b610b4881610ce9565b82525050565b6000602082019050610b636000830184610b3f565b92915050565b600061016082019050610b7f600083018e610b3f565b8181036020830152610b91818d610b06565b90508181036040830152610ba5818c610b06565b90508181036060830152610bb9818b610b06565b9050610bc8608083018a610b3f565b81810360a0830152610bda8189610b06565b9050610be960c0830188610b3f565b610bf660e0830187610b3f565b818103610100830152610c098186610b06565b9050818103610120830152610c1e8185610b06565b9050818103610140830152610c338184610b06565b90509c9b505050505050505050505050565b6000610c4f610c60565b9050610c5b8282610d67565b919050565b6000604051905090565b600067ffffffffffffffff821115610c8557610c84610e3f565b5b610c8e82610e82565b9050602081019050919050565b600081519050919050565b600082825260208201905092915050565b6000610cc282610cc9565b9050919050565b600073ffffffffffffffffffffffffffffffffffffffff82169050919050565b6000819050919050565b82818337600083830152505050565b60005b83811015610d20578082015181840152602081019050610d05565b83811115610d2f576000848401525b50505050565b60006002820490506001821680610d4d57607f821691505b60208210811415610d6157610d60610e10565b5b50919050565b610d7082610e82565b810181811067ffffffffffffffff82111715610d8f57610d8e610e3f565b5b80604052505050565b6000610da382610ce9565b91507fffffffffffffffffffffffffffffffffffffffffffffffffffffffffffffffff821415610dd657610dd5610de1565b5b600182019050919050565b7f4e487b7100000000000000000000000000000000000000000000000000000000600052601160045260246000fd5b7f4e487b7100000000000000000000000000000000000000000000000000000000600052602260045260246000fd5b7f4e487b7100000000000000000000000000000000000000000000000000000000600052604160045260246000fd5b600080fd5b600080fd5b600080fd5b600080fd5b6000601f19601f8301169050919050565b610e9c81610cb7565b8114610ea757600080fd5b50565b610eb381610ce9565b8114610ebe57600080fd5b5056fea2646970667358221220aa45ab9d4cdc3f889a67744edb774b50202695b426a6a47a986b7d7309bfae6964736f6c63430008060033",
  "immutableReferences": {},
  "source": "// SPDX-License-Identifier: MIT\npragma solidity ^0.8.6;\n\ncontract PropertiesContract {\n    // tipos de datos\n    // uint id, string oldOwner, string newOwner, string price, bool validity, string services, uint256 superficie,\n    // uint256 createAt, string latitud, string longitud, uint256 startDate, uint256 endDate, uint adultOccupants,\n    // uint minorOccupants, string roomNumber, bool lockStatus, string tipoInmueble, string zona\n\n    uint256 public contador = 0;\n\n    struct Property {\n        //general\n        uint256 id;\n        string oldOwnerAndCedula; //nombre del antiguo propietario\n        string newOwnerAndCedula; //nombre del nuevo propietario\n        string price; //monto establecido\n        uint propertyId; //estado del contrato\n        string services; //servicios que tiene el inmueble\n        uint256 superficie; //\n        uint256 createAt; //fecha del contrato\n        // uint256 cedulaOldOwner;\n        // uint256 cedulaNewOwner;\n        //datos del inmueble\n        //propiedad\n        string latitud;\n        string longitud;\n        //alquileres\n        // uint256 startDate; //inicio del alquiler\n        // uint256 endDate; //fin del contrato de alquiler\n        // uint256 adultOccupants; //ocupantes adultos\n        // uint256 minorOccupants; //ocupantes menores\n        // string roomNumber; //numero de la habitacion\n        // bool lockStatus;//estado de la cerradura\n        //tipo inmueble\n        // string tipoInmueble;\n        //zona\n        string zona;\n    }\n    event PropertyCreated(\n        uint256 id,\n        string oldOwnerAndCedula,\n        string newOwnerAndCedula,\n        string price,\n        uint propertyId,\n        string services,\n        uint256 superficie,\n        uint256 createAt,\n\n        string latitud,\n        string longitud,\n\n        string zona\n    );\n\n    // event PropertyValidity(\n    //     uint256 id,\n    //     bool validity\n    // );\n    //acundo\n    mapping(address => mapping(uint=>Property)) public properties;\n    mapping(address=>uint) public propertiesCount;\n\n    function createPropertyContract(\n        string memory _oldOwnerAndCedula,\n        string memory _newOwnerAndCedula,\n        string memory _price,\n        uint _propertyId,\n        string memory _services,\n        uint256 _superficie,\n        string memory _latitud,\n        string memory _longitud,\n        string memory _zona\n    ) public {\n        uint propertyCount = propertiesCount[msg.sender];\n        properties[msg.sender][propertyCount] = Property(\n            propertyCount,\n            _oldOwnerAndCedula,\n            _newOwnerAndCedula,\n            _price,\n            _propertyId,\n            _services,\n            _superficie,\n            block.timestamp,\n            _latitud,\n            _longitud,\n            _zona\n        );\n        emit PropertyCreated(propertyCount, _oldOwnerAndCedula, _newOwnerAndCedula, _price, _propertyId, _services, _superficie, block.timestamp, _latitud, _longitud, _zona);\n        propertiesCount[msg.sender]++;\n        contador++;\n    }\n\n    // function cambiarEstado(uint _id) public {\n    //     Property memory _property= properties[msg.sender][_id];\n    //     _property.validity= !_property.validity;\n    //     properties[msg.sender][_id]=_property;\n    //     emit PropertyValidity(_id, _property.validity);\n    // }\n}\n",
  "sourcePath": "C:\\Users\\ASUS\\Proyecto\\proysw\\contracts\\PropertiesContract.sol",
  "compiler": {
    "name": "solc",
    "version": "0.8.6+commit.11564f7e.Emscripten.clang"
  },
  "schemaVersion": "3.4.13",
  "updatedAt": "2023-07-17T05:33:03.938Z",
  "networkType": "ethereum",
  "devdoc": {
    "kind": "dev",
    "methods": {},
    "version": 1
  },
  "userdoc": {
    "kind": "user",
    "methods": {},
    "version": 1
  }
}